{
  "contractName": "Marketplace",
  "abi": [
    {
      "constant": true,
      "inputs": [],
      "name": "name",
      "outputs": [
        {
          "name": "",
          "type": "string"
        }
      ],
      "payable": false,
      "stateMutability": "view",
      "type": "function",
      "signature": "0x06fdde03"
    },
    {
      "constant": true,
      "inputs": [],
      "name": "products_historical",
      "outputs": [
        {
          "name": "",
          "type": "string"
        }
      ],
      "payable": false,
      "stateMutability": "view",
      "type": "function",
      "signature": "0x40f19b41"
    },
    {
      "constant": true,
      "inputs": [],
      "name": "vote_end",
      "outputs": [
        {
          "name": "",
          "type": "uint256"
        }
      ],
      "payable": false,
      "stateMutability": "view",
      "type": "function",
      "signature": "0x5e8a2932"
    },
    {
      "constant": true,
      "inputs": [
        {
          "name": "",
          "type": "uint256"
        }
      ],
      "name": "products",
      "outputs": [
        {
          "name": "id",
          "type": "uint256"
        },
        {
          "name": "name",
          "type": "string"
        },
        {
          "name": "price",
          "type": "uint256"
        },
        {
          "name": "owner",
          "type": "address"
        },
        {
          "name": "purchased",
          "type": "bool"
        },
        {
          "name": "upvotes",
          "type": "uint256"
        },
        {
          "name": "isSol",
          "type": "bool"
        }
      ],
      "payable": false,
      "stateMutability": "view",
      "type": "function",
      "signature": "0x7acc0b20"
    },
    {
      "constant": true,
      "inputs": [],
      "name": "productCount",
      "outputs": [
        {
          "name": "",
          "type": "uint256"
        }
      ],
      "payable": false,
      "stateMutability": "view",
      "type": "function",
      "signature": "0xe0f6ef87"
    },
    {
      "constant": true,
      "inputs": [],
      "name": "historyProdCount",
      "outputs": [
        {
          "name": "",
          "type": "uint256"
        }
      ],
      "payable": false,
      "stateMutability": "view",
      "type": "function",
      "signature": "0xf5f3e5e6"
    },
    {
      "inputs": [],
      "payable": false,
      "stateMutability": "nonpayable",
      "type": "constructor",
      "signature": "constructor"
    },
    {
      "anonymous": false,
      "inputs": [
        {
          "indexed": false,
          "name": "id",
          "type": "uint256"
        },
        {
          "indexed": false,
          "name": "name",
          "type": "string"
        },
        {
          "indexed": false,
          "name": "price",
          "type": "uint256"
        },
        {
          "indexed": false,
          "name": "owner",
          "type": "address"
        },
        {
          "indexed": false,
          "name": "purchased",
          "type": "bool"
        },
        {
          "indexed": false,
          "name": "upvotes",
          "type": "uint256"
        },
        {
          "indexed": false,
          "name": "contributors",
          "type": "uint256[5]"
        }
      ],
      "name": "ProductCreated",
      "type": "event",
      "signature": "0xee482fbf1479a03aa3dd6822606a53b29957fd5d87a13f40117fbdb76c659ba4"
    },
    {
      "anonymous": false,
      "inputs": [
        {
          "indexed": false,
          "name": "vote",
          "type": "uint256"
        }
      ],
      "name": "upVote",
      "type": "event",
      "signature": "0xec859db5a3c1ca3ee301d012a70f0e287a104754cd2f264283bb84531f0eed54"
    },
    {
      "anonymous": false,
      "inputs": [
        {
          "indexed": false,
          "name": "id",
          "type": "uint256"
        },
        {
          "indexed": false,
          "name": "name",
          "type": "string"
        },
        {
          "indexed": false,
          "name": "price",
          "type": "uint256"
        },
        {
          "indexed": false,
          "name": "owner",
          "type": "address"
        },
        {
          "indexed": false,
          "name": "purchased",
          "type": "bool"
        },
        {
          "indexed": false,
          "name": "upvotes",
          "type": "uint256"
        },
        {
          "indexed": false,
          "name": "contributors",
          "type": "uint256[5]"
        }
      ],
      "name": "ProductPurchased",
      "type": "event",
      "signature": "0xf011f86ac00d6c24bafdb0ffe41bbeda66c3a44c07ce2d622e3cfdba6ccb394a"
    },
    {
      "constant": true,
      "inputs": [
        {
          "name": "_id",
          "type": "uint256"
        }
      ],
      "name": "getArr",
      "outputs": [
        {
          "name": "",
          "type": "string"
        }
      ],
      "payable": false,
      "stateMutability": "view",
      "type": "function",
      "signature": "0x4308cf35"
    },
    {
      "constant": false,
      "inputs": [],
      "name": "createVoteEnd",
      "outputs": [],
      "payable": false,
      "stateMutability": "nonpayable",
      "type": "function",
      "signature": "0xa71ce3ea"
    },
    {
      "constant": true,
      "inputs": [],
      "name": "getCurrentVote",
      "outputs": [
        {
          "name": "",
          "type": "uint256"
        }
      ],
      "payable": false,
      "stateMutability": "view",
      "type": "function",
      "signature": "0xdc56028d"
    },
    {
      "constant": true,
      "inputs": [],
      "name": "resetProducts",
      "outputs": [],
      "payable": false,
      "stateMutability": "view",
      "type": "function",
      "signature": "0x6e2a2635"
    },
    {
      "constant": false,
      "inputs": [
        {
          "name": "_name",
          "type": "string"
        },
        {
          "name": "_price",
          "type": "uint256"
        },
        {
          "name": "upvotes",
          "type": "uint256"
        },
        {
          "name": "contributors",
          "type": "uint256[5]"
        },
        {
          "name": "isSol",
          "type": "bool"
        }
      ],
      "name": "createProduct",
      "outputs": [],
      "payable": false,
      "stateMutability": "nonpayable",
      "type": "function",
      "signature": "0x8413586a"
    },
    {
      "constant": false,
      "inputs": [
        {
          "name": "_name",
          "type": "string"
        },
        {
          "name": "_price",
          "type": "uint256"
        },
        {
          "name": "upvotes",
          "type": "uint256"
        },
        {
          "name": "contributors",
          "type": "uint256[5]"
        },
        {
          "name": "isSol",
          "type": "bool"
        }
      ],
      "name": "createSolution",
      "outputs": [],
      "payable": false,
      "stateMutability": "nonpayable",
      "type": "function",
      "signature": "0x092e450f"
    },
    {
      "constant": false,
      "inputs": [
        {
          "name": "_id",
          "type": "uint256"
        },
        {
          "name": "_price",
          "type": "uint256"
        }
      ],
      "name": "purchaseProduct",
      "outputs": [],
      "payable": false,
      "stateMutability": "nonpayable",
      "type": "function",
      "signature": "0xa0440426"
    }
  ],
  "bytecode": "0x60806040526000600155600060025560006003553480156200002057600080fd5b506040805190810160405280600e81526020017f696e76696374757320776f726473000000000000000000000000000000000000815250600090805190602001906200006e929190620000a6565b5060206040519081016040528060008152506005908051906020019062000097929190620000a6565b50600060028190555062000155565b828054600181600116156101000203166002900490600052602060002090601f016020900481019282601f10620000e957805160ff19168380011785556200011a565b828001600101855582156200011a579182015b8281111562000119578251825591602001919060010190620000fc565b5b5090506200012991906200012d565b5090565b6200015291905b808211156200014e57600081600090555060010162000134565b5090565b90565b61248380620001656000396000f3fe6080604052600436106100c5576000357c0100000000000000000000000000000000000000000000000000000000900463ffffffff16806306fdde03146100ca578063092e450f1461015a57806340f19b41146102845780634308cf35146103145780635e8a2932146103c85780636e2a2635146103f35780637acc0b201461040a5780638413586a1461051c578063a044042614610646578063a71ce3ea1461068b578063dc56028d146106a2578063e0f6ef87146106cd578063f5f3e5e6146106f8575b600080fd5b3480156100d657600080fd5b506100df610723565b6040518080602001828103825283818151815260200191508051906020019080838360005b8381101561011f578082015181840152602081019050610104565b50505050905090810190601f16801561014c5780820380516001836020036101000a031916815260200191505b509250505060405180910390f35b34801561016657600080fd5b50610282600480360361012081101561017e57600080fd5b810190808035906020019064010000000081111561019b57600080fd5b8201836020820111156101ad57600080fd5b803590602001918460018302840111640100000000831117156101cf57600080fd5b91908080601f016020809104026020016040519081016040528093929190818152602001838380828437600081840152601f19601f82011690508083019250505050505050919291929080359060200190929190803590602001909291908060a001906005806020026040519081016040528092919082600560200280828437600081840152601f19601f82011690508083019250505050505091929192908035151590602001909291905050506107c1565b005b34801561029057600080fd5b50610299610a6b565b6040518080602001828103825283818151815260200191508051906020019080838360005b838110156102d95780820151818401526020810190506102be565b50505050905090810190601f1680156103065780820380516001836020036101000a031916815260200191505b509250505060405180910390f35b34801561032057600080fd5b5061034d6004803603602081101561033757600080fd5b8101908080359060200190929190505050610b09565b6040518080602001828103825283818151815260200191508051906020019080838360005b8381101561038d578082015181840152602081019050610372565b50505050905090810190601f1680156103ba5780820380516001836020036101000a031916815260200191505b509250505060405180910390f35b3480156103d457600080fd5b506103dd610cee565b6040518082815260200191505060405180910390f35b3480156103ff57600080fd5b50610408610cf4565b005b34801561041657600080fd5b506104436004803603602081101561042d57600080fd5b8101908080359060200190929190505050610ef4565b60405180888152602001806020018781526020018673ffffffffffffffffffffffffffffffffffffffff1673ffffffffffffffffffffffffffffffffffffffff1681526020018515151515815260200184815260200183151515158152602001828103825288818151815260200191508051906020019080838360005b838110156104db5780820151818401526020810190506104c0565b50505050905090810190601f1680156105085780820380516001836020036101000a031916815260200191505b509850505050505050505060405180910390f35b34801561052857600080fd5b50610644600480360361012081101561054057600080fd5b810190808035906020019064010000000081111561055d57600080fd5b82018360208201111561056f57600080fd5b8035906020019184600183028401116401000000008311171561059157600080fd5b91908080601f016020809104026020016040519081016040528093929190818152602001838380828437600081840152601f19601f82011690508083019250505050505050919291929080359060200190929190803590602001909291908060a001906005806020026040519081016040528092919082600560200280828437600081840152601f19601f8201169050808301925050505050509192919290803515159060200190929190505050611008565b005b34801561065257600080fd5b506106896004803603604081101561066957600080fd5b8101908080359060200190929190803590602001909291905050506112b1565b005b34801561069757600080fd5b506106a06117c8565b005b3480156106ae57600080fd5b506106b7611c8c565b6040518082815260200191505060405180910390f35b3480156106d957600080fd5b506106e2611c96565b6040518082815260200191505060405180910390f35b34801561070457600080fd5b5061070d611c9c565b6040518082815260200191505060405180910390f35b60008054600181600116156101000203166002900480601f0160208091040260200160405190810160405280929190818152602001828054600181600116156101000203166002900480156107b95780601f1061078e576101008083540402835291602001916107b9565b820191906000526020600020905b81548152906001019060200180831161079c57829003601f168201915b505050505081565b600085511115156107d157600080fd5b6000841115156107e057600080fd5b6001600081548092919060010191905055506101006040519081016040528060015481526020018681526020018581526020013373ffffffffffffffffffffffffffffffffffffffff16815260200160011515815260200184815260200183815260200160011515815250600460006001548152602001908152602001600020600082015181600001556020820151816001019080519060200190610886929190612269565b506040820151816002015560608201518160030160006101000a81548173ffffffffffffffffffffffffffffffffffffffff021916908373ffffffffffffffffffffffffffffffffffffffff16021790555060808201518160030160146101000a81548160ff02191690831515021790555060a0820151816004015560c0820151816005019060056109199291906122e9565b5060e082015181600a0160006101000a81548160ff0219169083151502179055509050507fee482fbf1479a03aa3dd6822606a53b29957fd5d87a13f40117fbdb76c659ba46001548686336000888860405180888152602001806020018781526020018673ffffffffffffffffffffffffffffffffffffffff1673ffffffffffffffffffffffffffffffffffffffff1681526020018515151515815260200184815260200183600560200280838360005b838110156109e55780820151818401526020810190506109ca565b50505050905001828103825288818151815260200191508051906020019080838360005b83811015610a24578082015181840152602081019050610a09565b50505050905090810190601f168015610a515780820380516001836020036101000a031916815260200191505b509850505050505050505060405180910390a15050505050565b60058054600181600116156101000203166002900480601f016020809104026020016040519081016040528092919081815260200182805460018160011615610100020316600290048015610b015780601f10610ad657610100808354040283529160200191610b01565b820191906000526020600020905b815481529060010190602001808311610ae457829003601f168201915b505050505081565b6060610b13612329565b60046000848152602001908152602001600020610100604051908101604052908160008201548152602001600182018054600181600116156101000203166002900480601f016020809104026020016040519081016040528092919081815260200182805460018160011615610100020316600290048015610bd65780601f10610bab57610100808354040283529160200191610bd6565b820191906000526020600020905b815481529060010190602001808311610bb957829003601f168201915b50505050508152602001600282015481526020016003820160009054906101000a900473ffffffffffffffffffffffffffffffffffffffff1673ffffffffffffffffffffffffffffffffffffffff1673ffffffffffffffffffffffffffffffffffffffff1681526020016003820160149054906101000a900460ff161515151581526020016004820154815260200160058201600580602002604051908101604052809291908260058015610ca0576020028201915b815481526020019060010190808311610c8c575b50505050508152602001600a820160009054906101000a900460ff1615151515815250509050610ce68160c001516000600581101515610cdc57fe5b6020020151611ca2565b915050919050565b60025481565b610cfc612329565b60008090505b600254811015610ef05760046000828152602001908152602001600020610100604051908101604052908160008201548152602001600182018054600181600116156101000203166002900480601f016020809104026020016040519081016040528092919081815260200182805460018160011615610100020316600290048015610dcf5780601f10610da457610100808354040283529160200191610dcf565b820191906000526020600020905b815481529060010190602001808311610db257829003601f168201915b50505050508152602001600282015481526020016003820160009054906101000a900473ffffffffffffffffffffffffffffffffffffffff1673ffffffffffffffffffffffffffffffffffffffff1673ffffffffffffffffffffffffffffffffffffffff1681526020016003820160149054906101000a900460ff161515151581526020016004820154815260200160058201600580602002604051908101604052809291908260058015610e99576020028201915b815481526020019060010190808311610e85575b50505050508152602001600a820160009054906101000a900460ff16151515158152505091506020604051908101604052806000815250826020018190525060008260a00181815250508080600101915050610d02565b5050565b6004602052806000526040600020600091509050806000015490806001018054600181600116156101000203166002900480601f016020809104026020016040519081016040528092919081815260200182805460018160011615610100020316600290048015610fa65780601f10610f7b57610100808354040283529160200191610fa6565b820191906000526020600020905b815481529060010190602001808311610f8957829003601f168201915b5050505050908060020154908060030160009054906101000a900473ffffffffffffffffffffffffffffffffffffffff16908060030160149054906101000a900460ff169080600401549080600a0160009054906101000a900460ff16905087565b6000855111151561101857600080fd5b60008411151561102757600080fd5b6001600081548092919060010191905055506101006040519081016040528060015481526020018681526020018581526020013373ffffffffffffffffffffffffffffffffffffffff1681526020016000151581526020018481526020018381526020018215158152506004600060015481526020019081526020016000206000820151816000015560208201518160010190805190602001906110cc929190612269565b506040820151816002015560608201518160030160006101000a81548173ffffffffffffffffffffffffffffffffffffffff021916908373ffffffffffffffffffffffffffffffffffffffff16021790555060808201518160030160146101000a81548160ff02191690831515021790555060a0820151816004015560c08201518160050190600561115f9291906122e9565b5060e082015181600a0160006101000a81548160ff0219169083151502179055509050507fee482fbf1479a03aa3dd6822606a53b29957fd5d87a13f40117fbdb76c659ba46001548686336000888860405180888152602001806020018781526020018673ffffffffffffffffffffffffffffffffffffffff1673ffffffffffffffffffffffffffffffffffffffff1681526020018515151515815260200184815260200183600560200280838360005b8381101561122b578082015181840152602081019050611210565b50505050905001828103825288818151815260200191508051906020019080838360005b8381101561126a57808201518184015260208101905061124f565b50505050905090810190601f1680156112975780820380516001836020036101000a031916815260200191505b509850505050505050505060405180910390a15050505050565b6112b9612329565b60046000848152602001908152602001600020610100604051908101604052908160008201548152602001600182018054600181600116156101000203166002900480601f01602080910402602001604051908101604052809291908181526020018280546001816001161561010002031660029004801561137c5780601f106113515761010080835404028352916020019161137c565b820191906000526020600020905b81548152906001019060200180831161135f57829003601f168201915b50505050508152602001600282015481526020016003820160009054906101000a900473ffffffffffffffffffffffffffffffffffffffff1673ffffffffffffffffffffffffffffffffffffffff1673ffffffffffffffffffffffffffffffffffffffff1681526020016003820160149054906101000a900460ff161515151581526020016004820154815260200160058201600580602002604051908101604052809291908260058015611446576020028201915b815481526020019060010190808311611432575b50505050508152602001600a820160009054906101000a900460ff16151515158152505090506000816060015190506000826000015111801561148f5750600154826000015111155b151561149a57600080fd5b3373ffffffffffffffffffffffffffffffffffffffff168173ffffffffffffffffffffffffffffffffffffffff16141515156114d557600080fd5b33826060019073ffffffffffffffffffffffffffffffffffffffff16908173ffffffffffffffffffffffffffffffffffffffff1681525050600182608001901515908115158152505060018260a001818151019150818152505061010060405190810160405280600154815260200183602001518152602001848152602001836060015173ffffffffffffffffffffffffffffffffffffffff1681526020016000151581526020018360a0015181526020018360c0015181526020018360e001511515815250600460008681526020019081526020016000206000820151816000015560208201518160010190805190602001906115d4929190612269565b506040820151816002015560608201518160030160006101000a81548173ffffffffffffffffffffffffffffffffffffffff021916908373ffffffffffffffffffffffffffffffffffffffff16021790555060808201518160030160146101000a81548160ff02191690831515021790555060a0820151816004015560c0820151816005019060056116679291906122e9565b5060e082015181600a0160006101000a81548160ff0219169083151502179055509050507fee482fbf1479a03aa3dd6822606a53b29957fd5d87a13f40117fbdb76c659ba4600154836020015185856060015160008760a001518860c0015160405180888152602001806020018781526020018673ffffffffffffffffffffffffffffffffffffffff1673ffffffffffffffffffffffffffffffffffffffff1681526020018515151515815260200184815260200183600560200280838360005b83811015611743578082015181840152602081019050611728565b50505050905001828103825288818151815260200191508051906020019080838360005b83811015611782578082015181840152602081019050611767565b50505050905090810190601f1680156117af5780820380516001836020036101000a031916815260200191505b509850505050505050505060405180910390a150505050565b600260008154809291906001019190505550600a600254101515611c51576117ee612329565b60008090505b600254811015611b475760046000828152602001908152602001600020610100604051908101604052908160008201548152602001600182018054600181600116156101000203166002900480601f0160208091040260200160405190810160405280929190818152602001828054600181600116156101000203166002900480156118c15780601f10611896576101008083540402835291602001916118c1565b820191906000526020600020905b8154815290600101906020018083116118a457829003601f168201915b50505050508152602001600282015481526020016003820160009054906101000a900473ffffffffffffffffffffffffffffffffffffffff1673ffffffffffffffffffffffffffffffffffffffff1673ffffffffffffffffffffffffffffffffffffffff1681526020016003820160149054906101000a900460ff16151515158152602001600482015481526020016005820160058060200260405190810160405280929190826005801561198b576020028201915b815481526020019060010190808311611977575b50505050508152602001600a820160009054906101000a900460ff161515151581525050915060058260a00151101515611b3a57600360008154809291906001019190505550611b2360058054600181600116156101000203166002900480601f016020809104026020016040519081016040528092919081815260200182805460018160011615610100020316600290048015611a6a5780601f10611a3f57610100808354040283529160200191611a6a565b820191906000526020600020905b815481529060010190602001808311611a4d57829003601f168201915b5050505050600460008481526020019081526020016000206001018054600181600116156101000203166002900480601f016020809104026020016040519081016040528092919081815260200182805460018160011615610100020316600290048015611b195780601f10611aee57610100808354040283529160200191611b19565b820191906000526020600020905b815481529060010190602001808311611afc57829003601f168201915b5050505050611e07565b60059080519060200190611b3892919061238f565b505b80806001019150506117f4565b50611c2160058054600181600116156101000203166002900480601f016020809104026020016040519081016040528092919081815260200182805460018160011615610100020316600290048015611be15780601f10611bb657610100808354040283529160200191611be1565b820191906000526020600020905b815481529060010190602001808311611bc457829003601f168201915b50505050506040805190810160405280600281526020017f0a0a000000000000000000000000000000000000000000000000000000000000815250611e07565b60059080519060200190611c3692919061238f565b50611c3f610cf4565b60006002819055506000600181905550505b7fec859db5a3c1ca3ee301d012a70f0e287a104754cd2f264283bb84531f0eed546002546040518082815260200191505060405180910390a1565b6000600254905090565b60015481565b60035481565b60606000821415611cea576040805190810160405280600181526020017f30000000000000000000000000000000000000000000000000000000000000008152509050611e02565b600082905060005b600082141515611d18578080600101915050600a82811515611d1057fe5b049150611cf2565b6060816040519080825280601f01601f191660200182016040528015611d4d5781602001600182028038833980820191505090505b50905060008290505b600086141515611dfa576001810390506000600a8088811515611d7557fe5b0402870360300190506000817f0100000000000000000000000000000000000000000000000000000000000000029050808484815181101515611db457fe5b9060200101907effffffffffffffffffffffffffffffffffffffffffffffffffffffffffffff1916908160001a905350600a88811515611df057fe5b0497505050611d56565b819450505050505b919050565b6060611e468383602060405190810160405280600081525060206040519081016040528060008152506020604051908101604052806000815250611e4e565b905092915050565b6060808690506060869050606086905060608690506060869050606081518351855187518951010101016040519080825280601f01601f191660200182016040528015611eaa5781602001600182028038833980820191505090505b509050606081905060008090506000809050600090505b8851811015611f74578881815181101515611ed857fe5b9060200101517f010000000000000000000000000000000000000000000000000000000000000090047f0100000000000000000000000000000000000000000000000000000000000000028383806001019450815181101515611f3757fe5b9060200101907effffffffffffffffffffffffffffffffffffffffffffffffffffffffffffff1916908160001a9053508080600101915050611ec1565b600090505b875181101561202c578781815181101515611f9057fe5b9060200101517f010000000000000000000000000000000000000000000000000000000000000090047f0100000000000000000000000000000000000000000000000000000000000000028383806001019450815181101515611fef57fe5b9060200101907effffffffffffffffffffffffffffffffffffffffffffffffffffffffffffff1916908160001a9053508080600101915050611f79565b600090505b86518110156120e457868181518110151561204857fe5b9060200101517f010000000000000000000000000000000000000000000000000000000000000090047f01000000000000000000000000000000000000000000000000000000000000000283838060010194508151811015156120a757fe5b9060200101907effffffffffffffffffffffffffffffffffffffffffffffffffffffffffffff1916908160001a9053508080600101915050612031565b600090505b855181101561219c57858181518110151561210057fe5b9060200101517f010000000000000000000000000000000000000000000000000000000000000090047f010000000000000000000000000000000000000000000000000000000000000002838380600101945081518110151561215f57fe5b9060200101907effffffffffffffffffffffffffffffffffffffffffffffffffffffffffffff1916908160001a90535080806001019150506120e9565b600090505b84518110156122545784818151811015156121b857fe5b9060200101517f010000000000000000000000000000000000000000000000000000000000000090047f010000000000000000000000000000000000000000000000000000000000000002838380600101945081518110151561221757fe5b9060200101907effffffffffffffffffffffffffffffffffffffffffffffffffffffffffffff1916908160001a90535080806001019150506121a1565b82995050505050505050505095945050505050565b828054600181600116156101000203166002900490600052602060002090601f016020900481019282601f106122aa57805160ff19168380011785556122d8565b828001600101855582156122d8579182015b828111156122d75782518255916020019190600101906122bc565b5b5090506122e5919061240f565b5090565b8260058101928215612318579160200282015b828111156123175782518255916020019190600101906122fc565b5b509050612325919061240f565b5090565b61018060405190810160405280600081526020016060815260200160008152602001600073ffffffffffffffffffffffffffffffffffffffff16815260200160001515815260200160008152602001612380612434565b81526020016000151581525090565b828054600181600116156101000203166002900490600052602060002090601f016020900481019282601f106123d057805160ff19168380011785556123fe565b828001600101855582156123fe579182015b828111156123fd5782518255916020019190600101906123e2565b5b50905061240b919061240f565b5090565b61243191905b8082111561242d576000816000905550600101612415565b5090565b90565b60a06040519081016040528060059060208202803883398082019150509050509056fea165627a7a72305820143e649ac1bfe65780e2c3dacc6c9b7c97d0a6a22aadee1ecc58d804173fa2f30029",
  "source": "pragma solidity ^0.5.0;\n\ncontract Marketplace {\n\tstring public name;\n\tuint public productCount = 0;\n\tuint public vote_end = 0;\n\tuint public historyProdCount = 0;\n\tmapping(uint => Product) public products;\n\t// store the stories that have reached ten upvotes for display\n\tstring public products_historical;\n\n\tstruct Product {\n\t\tuint id;\n\t\tstring name;\n\t\tuint price;\n\t\taddress payable owner;\n\t\tbool purchased;\n\t\tuint upvotes;\n\t\tuint[5] contributors;\n\t\tbool isSol;\n\t}\n\n\tevent ProductCreated(\n\t\tuint id,\n\t\tstring name,\n\t\tuint price,\n\t\taddress payable owner,\n\t\tbool purchased,\n\t\tuint upvotes,\n\t\tuint[5] contributors\t\n\t);\n\n\tevent upVote(\n\t\tuint vote\n\t);\n\n\tevent ProductPurchased(\n\t\tuint id,\n\t\tstring name,\n\t\tuint price,\n\t\taddress payable owner,\n\t\tbool purchased,\n\t\tuint upvotes,\n\t\tuint[5] contributors\n\t);\n\n\tstruct voteEnd{\n\t\tuint votes;\n\t}\n\t\n\n\tconstructor() public {\n\t\tname = \"invictus words\";\n\t\tproducts_historical ='';\n\t\tvote_end = 0;\n\t}\n\n\tfunction getArr(uint _id) public view returns (string memory) {\n\t\tProduct memory _product = products[_id];\t\n    \treturn toString(_product.contributors[0]);\n\t}\n\n\tfunction strConcat(string memory _a, string memory _b, string memory _c, string memory _d, string memory _e) internal returns (string memory){\n    bytes memory _ba = bytes(_a);\n    bytes memory _bb = bytes(_b);\n    bytes memory _bc = bytes(_c);\n    bytes memory _bd = bytes(_d);\n    bytes memory _be = bytes(_e);\n    string memory abcde = new string(_ba.length + _bb.length + _bc.length + _bd.length + _be.length);\n    bytes memory babcde = bytes(abcde);\n    uint k = 0;\n\tuint i = 0;\n    for (i = 0; i < _ba.length; i++) babcde[k++] = _ba[i];\n    for (i = 0; i < _bb.length; i++) babcde[k++] = _bb[i];\n    for (i = 0; i < _bc.length; i++) babcde[k++] = _bc[i];\n    for (i = 0; i < _bd.length; i++) babcde[k++] = _bd[i];\n    for (i = 0; i < _be.length; i++) babcde[k++] = _be[i];\n    return string(babcde);\n\t}\n\n\tfunction strConcat(string memory _a, string memory _b) internal returns (string memory) {\n    return strConcat(_a, _b, \"\", \"\", \"\");\n}\n\n\tfunction toString(uint _i) internal pure returns (string memory _uintAsString) {\n        if (_i == 0) {\n            return \"0\";\n        }\n        uint j = _i;\n        uint len;\n        while (j != 0) {\n            len++;\n            j /= 10;\n        }\n        bytes memory bstr = new bytes(len);\n        uint k = len;\n        while (_i != 0) {\n            k = k-1;\n            uint8 temp = (48 + uint8(_i - _i / 10 * 10));\n            bytes1 b1 = bytes1(temp);\n            bstr[k] = b1;\n            _i /= 10;\n        }\n        return string(bstr);\n    }\n\n\tfunction createVoteEnd() public {\n\t\tvote_end++;\n\t\tif(vote_end >= 10){\n\t\t\tProduct memory _product;\n\t\t\tfor(uint i = 0; i < vote_end; i++){\n\t\t\t\t_product = products[i];\n\t\t\t\tif(_product.upvotes >= 5){\n\t\t\t\t\t\thistoryProdCount++;\n\t\t\t\t\t\tproducts_historical = strConcat(products_historical, products[i].name);\n\t\t\t\t}\n\t\t\t}\n\t\t\tproducts_historical = strConcat(products_historical, \"\\n\\n\");\n\t\t\tresetProducts();\n\t\t\tvote_end = 0;\n\t\t\tproductCount = 0;\n\t\t}\n\t\temit upVote(vote_end);\n\t}\n\n\tfunction getCurrentVote() public view returns (uint) {\n\t\t// portion where we plug in tufts account\n\t\t// address(_seller).transfer(msg.value);\n\t\treturn vote_end;\n\t}\n\n\n\t// function checkVotesLoad() public{\n\t// \tProduct memory _product;\n\t// \tfor(uint i = 0; i < vote_end; i++){\n\t// \t\t_product = products[i];\n\t// \t\tif(_product.upvotes >= 2){\n\t// \t\t\t\thistoryProdCount++;\n\t// \t\t\t\t_product = products[i];\n \t// \t\t\t\tproducts_historical[historyProdCount] = _product;\n\t// \t\t}\n\t// \t}\n\t// }\n\n\tfunction resetProducts() public view{\n\t\tProduct memory _product;\n\t\tfor(uint i = 0; i < vote_end; i++){\n\t\t\t_product = products[i];\n\t\t\t_product.name = \"\";\n\t\t\t_product.upvotes = 0;\n\t\t}\n\t}\n\n\n\tfunction createProduct(string memory _name, uint _price, uint upvotes, uint[5] memory contributors, bool isSol) public {\n\t\t// require a name\n\t\trequire(bytes(_name).length > 0);\n\t\t// require a valid price\n\t\trequire(_price > 0);\n\t\t// make sure params good\n\t\t// inc products count\n\t\tproductCount++;\n\t\t//set isSol\n\t\t//add owner to contributors\n\t\t// contributors[upvotes] = uint256(uint160(msg.sender));\n\t\t// create the product\n\t\tproducts[productCount] = Product(productCount, _name, _price, msg.sender, false, upvotes, contributors, isSol);\n\t\t// trigger an event\t\n\t\temit ProductCreated(productCount, _name, _price, msg.sender, false, upvotes, contributors);\n\t}\n\n\tfunction createSolution(string memory _name, uint _price, uint upvotes, uint[5] memory contributors, bool isSol) public {\n\t\t// require a name\n\t\trequire(bytes(_name).length > 0);\n\t\t// require a valid price\n\t\trequire(_price > 0);\n\t\t// make sure params good\n\t\t// inc products count\n\t\tproductCount++;\n\t\t//set isSol\n\t\t//add owner to contributors\n\t\t// contributors[upvotes] = uint256(uint160(msg.sender));\n\t\t// create the product\n\t\tproducts[productCount] = Product(productCount, _name, _price, msg.sender, true, upvotes, contributors, true);\n\t\t// trigger an event\t\n\t\temit ProductCreated(productCount, _name, _price, msg.sender, false, upvotes, contributors);\n\t}\n\n\tfunction purchaseProduct(uint _id, uint _price) public {\n\t\t// fetch product\n\t\tProduct memory _product = products[_id];\t\n\t\t// fetch the owner\n\t\taddress _seller = _product.owner;\n\t\t// make sure the product has a valid id\n\t\trequire(_product.id > 0 && _product.id <= productCount);\n\t\t// require(msg.value >= _product.price);\n\t\t// require(!_product.purchased);\n\t\trequire(_seller != msg.sender);\n\n\n\t\t// purchase it -> transfer ownership to buyer\n\t\t_product.owner = msg.sender;\n\t\t// mark as purchased\n\t\t_product.purchased = true;\n\t\t// increment upvotes of product\n\t\t_product.upvotes += 1;\n\t\t//add purchaser to contributors\n\t\t// _product.contributors[_product.upvotes] = uint256(uint160(_product.owner));\n\t\t//update the product\n\t\tproducts[_id] = Product(productCount, _product.name, _price, _product.owner, false, _product.upvotes, _product.contributors, _product.isSol);\n\t\t// pay the seller by sending them ether\n\t\t// address(_seller).transfer(msg.value);\n\t\t// trigger an event\n\t\t// emit ProductPurchased(productCount, _product.name, _product.price, msg.sender, true, _product.upvotes, _product.contributors);\n\t\temit ProductCreated(productCount, _product.name, _price, _product.owner, false, _product.upvotes, _product.contributors);\n\t}\n}",
  "sourcePath": "/Users/timseifert/marketplace/src/contracts/Marketplace.sol",
  "compiler": {
    "name": "solc",
    "version": "0.5.0+commit.1d4f565a.Emscripten.clang"
  },
  "schemaVersion": "3.0.2",
  "updatedAt": "2023-03-02T16:38:53.028Z",
  "devdoc": {
    "methods": {}
  },
  "userdoc": {
    "methods": {}
  }
}