{
  "contractName": "Marketplace",
  "abi": [
    {
      "constant": true,
      "inputs": [],
      "name": "name",
      "outputs": [
        {
          "name": "",
          "type": "string"
        }
      ],
      "payable": false,
      "stateMutability": "view",
      "type": "function",
      "signature": "0x06fdde03"
    },
    {
      "constant": true,
      "inputs": [],
      "name": "products_historical",
      "outputs": [
        {
          "name": "",
          "type": "string"
        }
      ],
      "payable": false,
      "stateMutability": "view",
      "type": "function",
      "signature": "0x40f19b41"
    },
    {
      "constant": true,
      "inputs": [],
      "name": "vote_end",
      "outputs": [
        {
          "name": "",
          "type": "uint256"
        }
      ],
      "payable": false,
      "stateMutability": "view",
      "type": "function",
      "signature": "0x5e8a2932"
    },
    {
      "constant": true,
      "inputs": [
        {
          "name": "",
          "type": "uint256"
        }
      ],
      "name": "products",
      "outputs": [
        {
          "name": "id",
          "type": "uint256"
        },
        {
          "name": "name",
          "type": "string"
        },
        {
          "name": "price",
          "type": "uint256"
        },
        {
          "name": "owner",
          "type": "address"
        },
        {
          "name": "purchased",
          "type": "bool"
        },
        {
          "name": "upvotes",
          "type": "uint256"
        }
      ],
      "payable": false,
      "stateMutability": "view",
      "type": "function",
      "signature": "0x7acc0b20"
    },
    {
      "constant": true,
      "inputs": [],
      "name": "productCount",
      "outputs": [
        {
          "name": "",
          "type": "uint256"
        }
      ],
      "payable": false,
      "stateMutability": "view",
      "type": "function",
      "signature": "0xe0f6ef87"
    },
    {
      "constant": true,
      "inputs": [],
      "name": "historyProdCount",
      "outputs": [
        {
          "name": "",
          "type": "uint256"
        }
      ],
      "payable": false,
      "stateMutability": "view",
      "type": "function",
      "signature": "0xf5f3e5e6"
    },
    {
      "inputs": [],
      "payable": false,
      "stateMutability": "nonpayable",
      "type": "constructor",
      "signature": "constructor"
    },
    {
      "anonymous": false,
      "inputs": [
        {
          "indexed": false,
          "name": "id",
          "type": "uint256"
        },
        {
          "indexed": false,
          "name": "name",
          "type": "string"
        },
        {
          "indexed": false,
          "name": "price",
          "type": "uint256"
        },
        {
          "indexed": false,
          "name": "owner",
          "type": "address"
        },
        {
          "indexed": false,
          "name": "purchased",
          "type": "bool"
        },
        {
          "indexed": false,
          "name": "upvotes",
          "type": "uint256"
        },
        {
          "indexed": false,
          "name": "contributors",
          "type": "uint256[5]"
        }
      ],
      "name": "ProductCreated",
      "type": "event",
      "signature": "0xee482fbf1479a03aa3dd6822606a53b29957fd5d87a13f40117fbdb76c659ba4"
    },
    {
      "anonymous": false,
      "inputs": [
        {
          "indexed": false,
          "name": "vote",
          "type": "uint256"
        }
      ],
      "name": "upVote",
      "type": "event",
      "signature": "0xec859db5a3c1ca3ee301d012a70f0e287a104754cd2f264283bb84531f0eed54"
    },
    {
      "anonymous": false,
      "inputs": [
        {
          "indexed": false,
          "name": "id",
          "type": "uint256"
        },
        {
          "indexed": false,
          "name": "name",
          "type": "string"
        },
        {
          "indexed": false,
          "name": "price",
          "type": "uint256"
        },
        {
          "indexed": false,
          "name": "owner",
          "type": "address"
        },
        {
          "indexed": false,
          "name": "purchased",
          "type": "bool"
        },
        {
          "indexed": false,
          "name": "upvotes",
          "type": "uint256"
        },
        {
          "indexed": false,
          "name": "contributors",
          "type": "uint256[5]"
        }
      ],
      "name": "ProductPurchased",
      "type": "event",
      "signature": "0xf011f86ac00d6c24bafdb0ffe41bbeda66c3a44c07ce2d622e3cfdba6ccb394a"
    },
    {
      "constant": true,
      "inputs": [
        {
          "name": "_id",
          "type": "uint256"
        }
      ],
      "name": "getArr",
      "outputs": [
        {
          "name": "",
          "type": "string"
        }
      ],
      "payable": false,
      "stateMutability": "view",
      "type": "function",
      "signature": "0x4308cf35"
    },
    {
      "constant": false,
      "inputs": [],
      "name": "createVoteEnd",
      "outputs": [],
      "payable": false,
      "stateMutability": "nonpayable",
      "type": "function",
      "signature": "0xa71ce3ea"
    },
    {
      "constant": true,
      "inputs": [],
      "name": "getCurrentVote",
      "outputs": [
        {
          "name": "",
          "type": "uint256"
        }
      ],
      "payable": false,
      "stateMutability": "view",
      "type": "function",
      "signature": "0xdc56028d"
    },
    {
      "constant": true,
      "inputs": [],
      "name": "resetProducts",
      "outputs": [],
      "payable": false,
      "stateMutability": "view",
      "type": "function",
      "signature": "0x6e2a2635"
    },
    {
      "constant": false,
      "inputs": [
        {
          "name": "_name",
          "type": "string"
        },
        {
          "name": "_price",
          "type": "uint256"
        },
        {
          "name": "upvotes",
          "type": "uint256"
        },
        {
          "name": "contributors",
          "type": "uint256[5]"
        }
      ],
      "name": "createProduct",
      "outputs": [],
      "payable": false,
      "stateMutability": "nonpayable",
      "type": "function",
      "signature": "0x6db0647a"
    },
    {
      "constant": false,
      "inputs": [
        {
          "name": "_id",
          "type": "uint256"
        }
      ],
      "name": "purchaseProduct",
      "outputs": [],
      "payable": true,
      "stateMutability": "payable",
      "type": "function",
      "signature": "0x38e76a03"
    }
  ],
  "bytecode": "0x60806040526000600155600060025560006003553480156200002057600080fd5b506040805190810160405280600e81526020017f696e76696374757320776f726473000000000000000000000000000000000000815250600090805190602001906200006e929190620000a6565b5060206040519081016040528060008152506005908051906020019062000097929190620000a6565b50600060028190555062000155565b828054600181600116156101000203166002900490600052602060002090601f016020900481019282601f10620000e957805160ff19168380011785556200011a565b828001600101855582156200011a579182015b8281111562000119578251825591602001919060010190620000fc565b5b5090506200012991906200012d565b5090565b6200015291905b808211156200014e57600081600090555060010162000134565b5090565b90565b61203180620001656000396000f3fe6080604052600436106100ba576000357c0100000000000000000000000000000000000000000000000000000000900463ffffffff16806306fdde03146100bf57806338e76a031461014f57806340f19b411461017d5780634308cf351461020d5780635e8a2932146102c15780636db0647a146102ec5780636e2a26351461040a5780637acc0b2014610421578063a71ce3ea14610528578063dc56028d1461053f578063e0f6ef871461056a578063f5f3e5e614610595575b600080fd5b3480156100cb57600080fd5b506100d46105c0565b6040518080602001828103825283818151815260200191508051906020019080838360005b838110156101145780820151818401526020810190506100f9565b50505050905090810190601f1680156101415780820380516001836020036101000a031916815260200191505b509250505060405180910390f35b61017b6004803603602081101561016557600080fd5b810190808035906020019092919050505061065e565b005b34801561018957600080fd5b50610192610b9c565b6040518080602001828103825283818151815260200191508051906020019080838360005b838110156101d25780820151818401526020810190506101b7565b50505050905090810190601f1680156101ff5780820380516001836020036101000a031916815260200191505b509250505060405180910390f35b34801561021957600080fd5b506102466004803603602081101561023057600080fd5b8101908080359060200190929190505050610c3a565b6040518080602001828103825283818151815260200191508051906020019080838360005b8381101561028657808201518184015260208101905061026b565b50505050905090810190601f1680156102b35780820380516001836020036101000a031916815260200191505b509250505060405180910390f35b3480156102cd57600080fd5b506102d6610e03565b6040518082815260200191505060405180910390f35b3480156102f857600080fd5b50610408600480360361010081101561031057600080fd5b810190808035906020019064010000000081111561032d57600080fd5b82018360208201111561033f57600080fd5b8035906020019184600183028401116401000000008311171561036157600080fd5b91908080601f016020809104026020016040519081016040528093929190818152602001838380828437600081840152601f19601f82011690508083019250505050505050919291929080359060200190929190803590602001909291908060a001906005806020026040519081016040528092919082600560200280828437600081840152601f19601f8201169050808301925050505050509192919290505050610e09565b005b34801561041657600080fd5b5061041f6110b6565b005b34801561042d57600080fd5b5061045a6004803603602081101561044457600080fd5b810190808035906020019092919050505061129a565b60405180878152602001806020018681526020018573ffffffffffffffffffffffffffffffffffffffff1673ffffffffffffffffffffffffffffffffffffffff16815260200184151515158152602001838152602001828103825287818151815260200191508051906020019080838360005b838110156104e85780820151818401526020810190506104cd565b50505050905090810190601f1680156105155780820380516001836020036101000a031916815260200191505b5097505050505050505060405180910390f35b34801561053457600080fd5b5061053d61139b565b005b34801561054b57600080fd5b50610554611843565b6040518082815260200191505060405180910390f35b34801561057657600080fd5b5061057f61184d565b6040518082815260200191505060405180910390f35b3480156105a157600080fd5b506105aa611853565b6040518082815260200191505060405180910390f35b60008054600181600116156101000203166002900480601f0160208091040260200160405190810160405280929190818152602001828054600181600116156101000203166002900480156106565780601f1061062b57610100808354040283529160200191610656565b820191906000526020600020905b81548152906001019060200180831161063957829003601f168201915b505050505081565b610666611e20565b6004600083815260200190815260200160002060e0604051908101604052908160008201548152602001600182018054600181600116156101000203166002900480601f0160208091040260200160405190810160405280929190818152602001828054600181600116156101000203166002900480156107285780601f106106fd57610100808354040283529160200191610728565b820191906000526020600020905b81548152906001019060200180831161070b57829003601f168201915b50505050508152602001600282015481526020016003820160009054906101000a900473ffffffffffffffffffffffffffffffffffffffff1673ffffffffffffffffffffffffffffffffffffffff1673ffffffffffffffffffffffffffffffffffffffff1681526020016003820160149054906101000a900460ff1615151515815260200160048201548152602001600582016005806020026040519081016040528092919082600580156107f2576020028201915b8154815260200190600101908083116107de575b5050505050815250509050600081606001519050600082600001511180156108205750600154826000015111155b151561082b57600080fd5b8160400151341015151561083e57600080fd5b816080015115151561084f57600080fd5b3373ffffffffffffffffffffffffffffffffffffffff168173ffffffffffffffffffffffffffffffffffffffff161415151561088a57600080fd5b33826060019073ffffffffffffffffffffffffffffffffffffffff16908173ffffffffffffffffffffffffffffffffffffffff1681525050600182608001901515908115158152505060018260a0018181510191508181525050816060015173ffffffffffffffffffffffffffffffffffffffff168260c001518360a0015160058110151561091557fe5b6020020181815250508160046000858152602001908152602001600020600082015181600001556020820151816001019080519060200190610958929190611e7d565b506040820151816002015560608201518160030160006101000a81548173ffffffffffffffffffffffffffffffffffffffff021916908373ffffffffffffffffffffffffffffffffffffffff16021790555060808201518160030160146101000a81548160ff02191690831515021790555060a0820151816004015560c0820151816005019060056109eb929190611efd565b509050508073ffffffffffffffffffffffffffffffffffffffff166108fc349081150290604051600060405180830381858888f19350505050158015610a35573d6000803e3d6000fd5b507ff011f86ac00d6c24bafdb0ffe41bbeda66c3a44c07ce2d622e3cfdba6ccb394a600154836020015184604001513360018760a001518860c0015160405180888152602001806020018781526020018673ffffffffffffffffffffffffffffffffffffffff1673ffffffffffffffffffffffffffffffffffffffff1681526020018515151515815260200184815260200183600560200280838360005b83811015610aee578082015181840152602081019050610ad3565b50505050905001828103825288818151815260200191508051906020019080838360005b83811015610b2d578082015181840152602081019050610b12565b50505050905090810190601f168015610b5a5780820380516001836020036101000a031916815260200191505b509850505050505050505060405180910390a160028260a001511015610b9757610b96826020015183604001518460a001518560c00151610e09565b5b505050565b60058054600181600116156101000203166002900480601f016020809104026020016040519081016040528092919081815260200182805460018160011615610100020316600290048015610c325780601f10610c0757610100808354040283529160200191610c32565b820191906000526020600020905b815481529060010190602001808311610c1557829003601f168201915b505050505081565b6060610c44611e20565b6004600084815260200190815260200160002060e0604051908101604052908160008201548152602001600182018054600181600116156101000203166002900480601f016020809104026020016040519081016040528092919081815260200182805460018160011615610100020316600290048015610d065780601f10610cdb57610100808354040283529160200191610d06565b820191906000526020600020905b815481529060010190602001808311610ce957829003601f168201915b50505050508152602001600282015481526020016003820160009054906101000a900473ffffffffffffffffffffffffffffffffffffffff1673ffffffffffffffffffffffffffffffffffffffff1673ffffffffffffffffffffffffffffffffffffffff1681526020016003820160149054906101000a900460ff161515151581526020016004820154815260200160058201600580602002604051908101604052809291908260058015610dd0576020028201915b815481526020019060010190808311610dbc575b5050505050815250509050610dfb8160c001516000600581101515610df157fe5b6020020151611859565b915050919050565b60025481565b60008451111515610e1957600080fd5b600083111515610e2857600080fd5b6001600081548092919060010191905055503373ffffffffffffffffffffffffffffffffffffffff168183600581101515610e5f57fe5b60200201818152505060e06040519081016040528060015481526020018581526020018481526020013373ffffffffffffffffffffffffffffffffffffffff16815260200160001515815260200183815260200182815250600460006001548152602001908152602001600020600082015181600001556020820151816001019080519060200190610ef2929190611e7d565b506040820151816002015560608201518160030160006101000a81548173ffffffffffffffffffffffffffffffffffffffff021916908373ffffffffffffffffffffffffffffffffffffffff16021790555060808201518160030160146101000a81548160ff02191690831515021790555060a0820151816004015560c082015181600501906005610f85929190611efd565b509050507fee482fbf1479a03aa3dd6822606a53b29957fd5d87a13f40117fbdb76c659ba46001548585336000878760405180888152602001806020018781526020018673ffffffffffffffffffffffffffffffffffffffff1673ffffffffffffffffffffffffffffffffffffffff1681526020018515151515815260200184815260200183600560200280838360005b83811015611031578082015181840152602081019050611016565b50505050905001828103825288818151815260200191508051906020019080838360005b83811015611070578082015181840152602081019050611055565b50505050905090810190601f16801561109d5780820380516001836020036101000a031916815260200191505b509850505050505050505060405180910390a150505050565b6110be611e20565b60008090505b600254811015611296576004600082815260200190815260200160002060e0604051908101604052908160008201548152602001600182018054600181600116156101000203166002900480601f0160208091040260200160405190810160405280929190818152602001828054600181600116156101000203166002900480156111905780601f1061116557610100808354040283529160200191611190565b820191906000526020600020905b81548152906001019060200180831161117357829003601f168201915b50505050508152602001600282015481526020016003820160009054906101000a900473ffffffffffffffffffffffffffffffffffffffff1673ffffffffffffffffffffffffffffffffffffffff1673ffffffffffffffffffffffffffffffffffffffff1681526020016003820160149054906101000a900460ff16151515158152602001600482015481526020016005820160058060200260405190810160405280929190826005801561125a576020028201915b815481526020019060010190808311611246575b50505050508152505091506020604051908101604052806000815250826020018190525060008260a001818152505080806001019150506110c4565b5050565b6004602052806000526040600020600091509050806000015490806001018054600181600116156101000203166002900480601f01602080910402602001604051908101604052809291908181526020018280546001816001161561010002031660029004801561134c5780601f106113215761010080835404028352916020019161134c565b820191906000526020600020905b81548152906001019060200180831161132f57829003601f168201915b5050505050908060020154908060030160009054906101000a900473ffffffffffffffffffffffffffffffffffffffff16908060030160149054906101000a900460ff16908060040154905086565b600260008154809291906001019190505550600a600254101515611808576113c1611e20565b60008090505b6002548110156116fe576004600082815260200190815260200160002060e0604051908101604052908160008201548152602001600182018054600181600116156101000203166002900480601f0160208091040260200160405190810160405280929190818152602001828054600181600116156101000203166002900480156114935780601f1061146857610100808354040283529160200191611493565b820191906000526020600020905b81548152906001019060200180831161147657829003601f168201915b50505050508152602001600282015481526020016003820160009054906101000a900473ffffffffffffffffffffffffffffffffffffffff1673ffffffffffffffffffffffffffffffffffffffff1673ffffffffffffffffffffffffffffffffffffffff1681526020016003820160149054906101000a900460ff16151515158152602001600482015481526020016005820160058060200260405190810160405280929190826005801561155d576020028201915b815481526020019060010190808311611549575b505050505081525050915060028260a001511015156116f1576003600081548092919060010191905055506116da60058054600181600116156101000203166002900480601f0160208091040260200160405190810160405280929190818152602001828054600181600116156101000203166002900480156116215780601f106115f657610100808354040283529160200191611621565b820191906000526020600020905b81548152906001019060200180831161160457829003601f168201915b5050505050600460008481526020019081526020016000206001018054600181600116156101000203166002900480601f0160208091040260200160405190810160405280929190818152602001828054600181600116156101000203166002900480156116d05780601f106116a5576101008083540402835291602001916116d0565b820191906000526020600020905b8154815290600101906020018083116116b357829003601f168201915b50505050506119be565b600590805190602001906116ef929190611f3d565b505b80806001019150506113c7565b506117d860058054600181600116156101000203166002900480601f0160208091040260200160405190810160405280929190818152602001828054600181600116156101000203166002900480156117985780601f1061176d57610100808354040283529160200191611798565b820191906000526020600020905b81548152906001019060200180831161177b57829003601f168201915b50505050506040805190810160405280600281526020017f0a0a0000000000000000000000000000000000000000000000000000000000008152506119be565b600590805190602001906117ed929190611f3d565b506117f66110b6565b60006002819055506000600181905550505b7fec859db5a3c1ca3ee301d012a70f0e287a104754cd2f264283bb84531f0eed546002546040518082815260200191505060405180910390a1565b6000600254905090565b60015481565b60035481565b606060008214156118a1576040805190810160405280600181526020017f300000000000000000000000000000000000000000000000000000000000000081525090506119b9565b600082905060005b6000821415156118cf578080600101915050600a828115156118c757fe5b0491506118a9565b6060816040519080825280601f01601f1916602001820160405280156119045781602001600182028038833980820191505090505b50905060008290505b6000861415156119b1576001810390506000600a808881151561192c57fe5b0402870360300190506000817f010000000000000000000000000000000000000000000000000000000000000002905080848481518110151561196b57fe5b9060200101907effffffffffffffffffffffffffffffffffffffffffffffffffffffffffffff1916908160001a905350600a888115156119a757fe5b049750505061190d565b819450505050505b919050565b60606119fd8383602060405190810160405280600081525060206040519081016040528060008152506020604051908101604052806000815250611a05565b905092915050565b6060808690506060869050606086905060608690506060869050606081518351855187518951010101016040519080825280601f01601f191660200182016040528015611a615781602001600182028038833980820191505090505b509050606081905060008090506000809050600090505b8851811015611b2b578881815181101515611a8f57fe5b9060200101517f010000000000000000000000000000000000000000000000000000000000000090047f0100000000000000000000000000000000000000000000000000000000000000028383806001019450815181101515611aee57fe5b9060200101907effffffffffffffffffffffffffffffffffffffffffffffffffffffffffffff1916908160001a9053508080600101915050611a78565b600090505b8751811015611be3578781815181101515611b4757fe5b9060200101517f010000000000000000000000000000000000000000000000000000000000000090047f0100000000000000000000000000000000000000000000000000000000000000028383806001019450815181101515611ba657fe5b9060200101907effffffffffffffffffffffffffffffffffffffffffffffffffffffffffffff1916908160001a9053508080600101915050611b30565b600090505b8651811015611c9b578681815181101515611bff57fe5b9060200101517f010000000000000000000000000000000000000000000000000000000000000090047f0100000000000000000000000000000000000000000000000000000000000000028383806001019450815181101515611c5e57fe5b9060200101907effffffffffffffffffffffffffffffffffffffffffffffffffffffffffffff1916908160001a9053508080600101915050611be8565b600090505b8551811015611d53578581815181101515611cb757fe5b9060200101517f010000000000000000000000000000000000000000000000000000000000000090047f0100000000000000000000000000000000000000000000000000000000000000028383806001019450815181101515611d1657fe5b9060200101907effffffffffffffffffffffffffffffffffffffffffffffffffffffffffffff1916908160001a9053508080600101915050611ca0565b600090505b8451811015611e0b578481815181101515611d6f57fe5b9060200101517f010000000000000000000000000000000000000000000000000000000000000090047f0100000000000000000000000000000000000000000000000000000000000000028383806001019450815181101515611dce57fe5b9060200101907effffffffffffffffffffffffffffffffffffffffffffffffffffffffffffff1916908160001a9053508080600101915050611d58565b82995050505050505050505095945050505050565b61016060405190810160405280600081526020016060815260200160008152602001600073ffffffffffffffffffffffffffffffffffffffff16815260200160001515815260200160008152602001611e77611fbd565b81525090565b828054600181600116156101000203166002900490600052602060002090601f016020900481019282601f10611ebe57805160ff1916838001178555611eec565b82800160010185558215611eec579182015b82811115611eeb578251825591602001919060010190611ed0565b5b509050611ef99190611fe0565b5090565b8260058101928215611f2c579160200282015b82811115611f2b578251825591602001919060010190611f10565b5b509050611f399190611fe0565b5090565b828054600181600116156101000203166002900490600052602060002090601f016020900481019282601f10611f7e57805160ff1916838001178555611fac565b82800160010185558215611fac579182015b82811115611fab578251825591602001919060010190611f90565b5b509050611fb99190611fe0565b5090565b60a060405190810160405280600590602082028038833980820191505090505090565b61200291905b80821115611ffe576000816000905550600101611fe6565b5090565b9056fea165627a7a72305820d1df0c85368560d97116f0fdd50e705096e612e4cb4172a901757b1fdd103ec10029",
  "source": "pragma solidity ^0.5.0;\n\ncontract Marketplace {\n\tstring public name;\n\tuint public productCount = 0;\n\tuint public vote_end = 0;\n\tuint public historyProdCount = 0;\n\tmapping(uint => Product) public products;\n\t// store the stories that have reached ten upvotes for display\n\tstring public products_historical;\n\n\tstruct Product {\n\t\tuint id;\n\t\tstring name;\n\t\tuint price;\n\t\taddress payable owner;\n\t\tbool purchased;\n\t\tuint upvotes;\n\t\tuint[5] contributors;\n\t}\n\n\tevent ProductCreated(\n\t\tuint id,\n\t\tstring name,\n\t\tuint price,\n\t\taddress payable owner,\n\t\tbool purchased,\n\t\tuint upvotes,\n\t\tuint[5] contributors\t\n\t);\n\n\tevent upVote(\n\t\tuint vote\n\t);\n\n\tevent ProductPurchased(\n\t\tuint id,\n\t\tstring name,\n\t\tuint price,\n\t\taddress payable owner,\n\t\tbool purchased,\n\t\tuint upvotes,\n\t\tuint[5] contributors\n\t);\n\n\tstruct voteEnd{\n\t\tuint votes;\n\t}\n\t\n\n\tconstructor() public {\n\t\tname = \"invictus words\";\n\t\tproducts_historical ='';\n\t\tvote_end = 0;\n\t}\n\n\tfunction getArr(uint _id) public view returns (string memory) {\n\t\tProduct memory _product = products[_id];\t\n    \treturn toString(_product.contributors[0]);\n\t}\n\n\tfunction strConcat(string memory _a, string memory _b, string memory _c, string memory _d, string memory _e) internal returns (string memory){\n    bytes memory _ba = bytes(_a);\n    bytes memory _bb = bytes(_b);\n    bytes memory _bc = bytes(_c);\n    bytes memory _bd = bytes(_d);\n    bytes memory _be = bytes(_e);\n    string memory abcde = new string(_ba.length + _bb.length + _bc.length + _bd.length + _be.length);\n    bytes memory babcde = bytes(abcde);\n    uint k = 0;\n\tuint i = 0;\n    for (i = 0; i < _ba.length; i++) babcde[k++] = _ba[i];\n    for (i = 0; i < _bb.length; i++) babcde[k++] = _bb[i];\n    for (i = 0; i < _bc.length; i++) babcde[k++] = _bc[i];\n    for (i = 0; i < _bd.length; i++) babcde[k++] = _bd[i];\n    for (i = 0; i < _be.length; i++) babcde[k++] = _be[i];\n    return string(babcde);\n\t}\n\n\tfunction strConcat(string memory _a, string memory _b) internal returns (string memory) {\n    return strConcat(_a, _b, \"\", \"\", \"\");\n}\n\n\tfunction toString(uint _i) internal pure returns (string memory _uintAsString) {\n        if (_i == 0) {\n            return \"0\";\n        }\n        uint j = _i;\n        uint len;\n        while (j != 0) {\n            len++;\n            j /= 10;\n        }\n        bytes memory bstr = new bytes(len);\n        uint k = len;\n        while (_i != 0) {\n            k = k-1;\n            uint8 temp = (48 + uint8(_i - _i / 10 * 10));\n            bytes1 b1 = bytes1(temp);\n            bstr[k] = b1;\n            _i /= 10;\n        }\n        return string(bstr);\n    }\n\n\tfunction createVoteEnd() public {\n\t\tvote_end++;\n\t\tif(vote_end >= 10){\n\t\t\tProduct memory _product;\n\t\t\tfor(uint i = 0; i < vote_end; i++){\n\t\t\t\t_product = products[i];\n\t\t\t\tif(_product.upvotes >= 2){\n\t\t\t\t\t\thistoryProdCount++;\n\t\t\t\t\t\tproducts_historical = strConcat(products_historical, products[i].name);\n\t\t\t\t}\n\t\t\t}\n\t\t\tproducts_historical = strConcat(products_historical, \"\\n\\n\");\n\t\t\tresetProducts();\n\t\t\tvote_end = 0;\n\t\t\tproductCount = 0;\n\t\t}\n\t\temit upVote(vote_end);\n\t}\n\n\tfunction getCurrentVote() public view returns (uint) {\n\t\t// portion where we plug in tufts account\n\t\t// address(_seller).transfer(msg.value);\n\t\treturn vote_end;\n\t}\n\n\n\t// function checkVotesLoad() public{\n\t// \tProduct memory _product;\n\t// \tfor(uint i = 0; i < vote_end; i++){\n\t// \t\t_product = products[i];\n\t// \t\tif(_product.upvotes >= 2){\n\t// \t\t\t\thistoryProdCount++;\n\t// \t\t\t\t_product = products[i];\n \t// \t\t\t\tproducts_historical[historyProdCount] = _product;\n\t// \t\t}\n\t// \t}\n\t// }\n\n\tfunction resetProducts() public view{\n\t\tProduct memory _product;\n\t\tfor(uint i = 0; i < vote_end; i++){\n\t\t\t_product = products[i];\n\t\t\t_product.name = \"\";\n\t\t\t_product.upvotes = 0;\n\t\t}\n\t}\n\n\n\tfunction createProduct(string memory _name, uint _price, uint upvotes, uint[5] memory contributors) public {\n\t\t// require a name\n\t\trequire(bytes(_name).length > 0);\n\t\t// require a valid price\n\t\trequire(_price > 0);\n\t\t// make sure params good\n\t\t// inc products count\n\t\tproductCount++;\n\t\t//add owner to contributors\n\t\tcontributors[upvotes] = uint256(uint160(msg.sender));\n\t\t// create the product\n\t\tproducts[productCount] = Product(productCount, _name, _price, msg.sender, false, upvotes, contributors);\n\t\t// trigger an event\t\n\t\temit ProductCreated(productCount, _name, _price, msg.sender, false, upvotes, contributors);\n\t}\n\n\tfunction purchaseProduct(uint _id) public payable {\n\t\t// fetch product\n\t\tProduct memory _product = products[_id];\t\n\t\t// fetch the owner\n\t\taddress payable _seller = _product.owner;\n\t\t// make sure the product has a valid id\n\t\trequire(_product.id > 0 && _product.id <= productCount);\n\t\t// make sure they sent enough ether\n\t\trequire(msg.value >= _product.price);\n\t\t// require product has not already been purchased\n\t\trequire(!_product.purchased);\n\t\t// require that the buyer is not the seller\n\t\trequire(_seller != msg.sender);\n\t\t// require that the buyer is not a previous contributor (i.e already upvoted)\n\n\n\t\t// purchase it -> transfer ownership to buyer\n\t\t_product.owner = msg.sender;\n\t\t// mark as purchased\n\t\t_product.purchased = true;\n\t\t// increment upvotes of product\n\t\t_product.upvotes += 1;\n\t\t//add purchaser to contributors\n\t\t_product.contributors[_product.upvotes] = uint256(uint160(_product.owner));\n\t\t//update the product\n\t\tproducts[_id] = _product;\n\t\t// pay the seller by sending them ether\n\t\taddress(_seller).transfer(msg.value);\n\t\t// trigger an event\n\t\temit ProductPurchased(productCount, _product.name, _product.price, msg.sender, true, _product.upvotes, _product.contributors);\n\n\t\tif(_product.upvotes < 2){\n\t\t\tcreateProduct(_product.name, _product.price, _product.upvotes, _product.contributors);\n\t\t}\n\t}\n}",
  "sourcePath": "/Users/timseifert/marketplace/src/contracts/Marketplace.sol",
  "compiler": {
    "name": "solc",
    "version": "0.5.0+commit.1d4f565a.Emscripten.clang"
  },
  "schemaVersion": "3.0.2",
  "updatedAt": "2022-11-30T20:59:02.031Z",
  "devdoc": {
    "methods": {}
  },
  "userdoc": {
    "methods": {}
  }
}